{
  "_format": "hh-sol-artifact-1",
  "contractName": "TokenExchange",
  "sourceName": "contracts/exchange.sol",
  "abi": [
    {
      "inputs": [],
      "stateMutability": "nonpayable",
      "type": "constructor"
    },
    {
      "anonymous": false,
      "inputs": [
        {
          "indexed": true,
          "internalType": "address",
          "name": "previousOwner",
          "type": "address"
        },
        {
          "indexed": true,
          "internalType": "address",
          "name": "newOwner",
          "type": "address"
        }
      ],
      "name": "OwnershipTransferred",
      "type": "event"
    },
    {
      "inputs": [
        {
          "internalType": "uint256",
          "name": "max_exchange_rate",
          "type": "uint256"
        },
        {
          "internalType": "uint256",
          "name": "min_exchange_rate",
          "type": "uint256"
        }
      ],
      "name": "addLiquidity",
      "outputs": [],
      "stateMutability": "payable",
      "type": "function"
    },
    {
      "inputs": [
        {
          "internalType": "uint256",
          "name": "amountTokens",
          "type": "uint256"
        }
      ],
      "name": "createPool",
      "outputs": [],
      "stateMutability": "payable",
      "type": "function"
    },
    {
      "inputs": [],
      "name": "exchange_name",
      "outputs": [
        {
          "internalType": "string",
          "name": "",
          "type": "string"
        }
      ],
      "stateMutability": "view",
      "type": "function"
    },
    {
      "inputs": [],
      "name": "getReserves",
      "outputs": [
        {
          "internalType": "uint256",
          "name": "",
          "type": "uint256"
        },
        {
          "internalType": "uint256",
          "name": "",
          "type": "uint256"
        }
      ],
      "stateMutability": "view",
      "type": "function"
    },
    {
      "inputs": [],
      "name": "getSwapFee",
      "outputs": [
        {
          "internalType": "uint256",
          "name": "",
          "type": "uint256"
        },
        {
          "internalType": "uint256",
          "name": "",
          "type": "uint256"
        }
      ],
      "stateMutability": "view",
      "type": "function"
    },
    {
      "inputs": [],
      "name": "owner",
      "outputs": [
        {
          "internalType": "address",
          "name": "",
          "type": "address"
        }
      ],
      "stateMutability": "view",
      "type": "function"
    },
    {
      "inputs": [
        {
          "internalType": "uint256",
          "name": "max_exchange_rate",
          "type": "uint256"
        },
        {
          "internalType": "uint256",
          "name": "min_exchange_rate",
          "type": "uint256"
        }
      ],
      "name": "removeAllLiquidity",
      "outputs": [],
      "stateMutability": "payable",
      "type": "function"
    },
    {
      "inputs": [
        {
          "internalType": "uint256",
          "name": "amountETH",
          "type": "uint256"
        },
        {
          "internalType": "uint256",
          "name": "max_exchange_rate",
          "type": "uint256"
        },
        {
          "internalType": "uint256",
          "name": "min_exchange_rate",
          "type": "uint256"
        }
      ],
      "name": "removeLiquidity",
      "outputs": [],
      "stateMutability": "payable",
      "type": "function"
    },
    {
      "inputs": [],
      "name": "renounceOwnership",
      "outputs": [],
      "stateMutability": "nonpayable",
      "type": "function"
    },
    {
      "inputs": [
        {
          "internalType": "uint256",
          "name": "max_exchange_rate",
          "type": "uint256"
        }
      ],
      "name": "swapETHForTokens",
      "outputs": [],
      "stateMutability": "payable",
      "type": "function"
    },
    {
      "inputs": [
        {
          "internalType": "uint256",
          "name": "amountTokens",
          "type": "uint256"
        },
        {
          "internalType": "uint256",
          "name": "max_exchange_rate",
          "type": "uint256"
        }
      ],
      "name": "swapTokensForETH",
      "outputs": [],
      "stateMutability": "payable",
      "type": "function"
    },
    {
      "inputs": [],
      "name": "token",
      "outputs": [
        {
          "internalType": "contract Token",
          "name": "",
          "type": "address"
        }
      ],
      "stateMutability": "view",
      "type": "function"
    },
    {
      "inputs": [
        {
          "internalType": "address",
          "name": "newOwner",
          "type": "address"
        }
      ],
      "name": "transferOwnership",
      "outputs": [],
      "stateMutability": "nonpayable",
      "type": "function"
    }
  ],
  "bytecode": "0x60806040526040518060400160405280600e81526020017f546974616e5f45786368616e6765000000000000000000000000000000000000815250600190816200004a9190620004a7565b50735fbdb2315678afecb367f032d93f642f64180aa3600260006101000a81548173ffffffffffffffffffffffffffffffffffffffff021916908373ffffffffffffffffffffffffffffffffffffffff160217905550600260009054906101000a900473ffffffffffffffffffffffffffffffffffffffff16600360006101000a81548173ffffffffffffffffffffffffffffffffffffffff021916908373ffffffffffffffffffffffffffffffffffffffff16021790555060006004556000600555600060065560006007556000600a556003600b556064600c55620186a0600e553480156200013a57600080fd5b506200015b6200014f6200016160201b60201c565b6200016960201b60201c565b6200058e565b600033905090565b60008060009054906101000a900473ffffffffffffffffffffffffffffffffffffffff169050816000806101000a81548173ffffffffffffffffffffffffffffffffffffffff021916908373ffffffffffffffffffffffffffffffffffffffff1602179055508173ffffffffffffffffffffffffffffffffffffffff168173ffffffffffffffffffffffffffffffffffffffff167f8be0079c531659141344cd1fd0a4f28419497f9722a3daafe3b4186f6b6457e060405160405180910390a35050565b600081519050919050565b7f4e487b7100000000000000000000000000000000000000000000000000000000600052604160045260246000fd5b7f4e487b7100000000000000000000000000000000000000000000000000000000600052602260045260246000fd5b60006002820490506001821680620002af57607f821691505b602082108103620002c557620002c462000267565b5b50919050565b60008190508160005260206000209050919050565b60006020601f8301049050919050565b600082821b905092915050565b6000600883026200032f7fffffffffffffffffffffffffffffffffffffffffffffffffffffffffffffffff82620002f0565b6200033b8683620002f0565b95508019841693508086168417925050509392505050565b6000819050919050565b6000819050919050565b600062000388620003826200037c8462000353565b6200035d565b62000353565b9050919050565b6000819050919050565b620003a48362000367565b620003bc620003b3826200038f565b848454620002fd565b825550505050565b600090565b620003d3620003c4565b620003e081848462000399565b505050565b5b818110156200040857620003fc600082620003c9565b600181019050620003e6565b5050565b601f82111562000457576200042181620002cb565b6200042c84620002e0565b810160208510156200043c578190505b620004546200044b85620002e0565b830182620003e5565b50505b505050565b600082821c905092915050565b60006200047c600019846008026200045c565b1980831691505092915050565b600062000497838362000469565b9150826002028217905092915050565b620004b2826200022d565b67ffffffffffffffff811115620004ce57620004cd62000238565b5b620004da825462000296565b620004e78282856200040c565b600060209050601f8311600181146200051f57600084156200050a578287015190505b62000516858262000489565b86555062000586565b601f1984166200052f86620002cb565b60005b82811015620005595784890151825560018201915060208501945060208101905062000532565b8683101562000579578489015162000575601f89168262000469565b8355505b6001600288020188555050505b505050505050565b613641806200059e6000396000f3fe6080604052600436106100c25760003560e01c80638da5cb5b1161007f578063d4cadf6811610059578063d4cadf68146101dd578063f2fde38b14610209578063f694f7d114610232578063fc0c546a1461025d576100c2565b80638da5cb5b1461017a5780639cd441da146101a5578063a22280a6146101c1576100c2565b80630902f1ac146100c75780632eab2841146100f357806358ad6de41461010f578063715018a61461012b5780638259e6a014610142578063857620e11461015e575b600080fd5b3480156100d357600080fd5b506100dc610288565b6040516100ea9291906123d5565b60405180910390f35b61010d6004803603810190610108919061242f565b610299565b005b6101296004803603810190610124919061245c565b6106bf565b005b34801561013757600080fd5b50610140610b71565b005b61015c6004803603810190610157919061242f565b610b85565b005b6101786004803603810190610173919061249c565b610f35565b005b34801561018657600080fd5b5061018f6114ff565b60405161019c9190612530565b60405180910390f35b6101bf60048036038101906101ba919061245c565b611528565b005b6101db60048036038101906101d6919061245c565b611a94565b005b3480156101e957600080fd5b506101f2611f01565b6040516102009291906123d5565b60405180910390f35b34801561021557600080fd5b50610230600480360381019061022b9190612577565b611f12565b005b34801561023e57600080fd5b50610247611f95565b6040516102549190612634565b60405180910390f35b34801561026957600080fd5b50610272612023565b60405161027f91906126b5565b60405180910390f35b600080600554600454915091509091565b600034116102dc576040517f08c379a00000000000000000000000000000000000000000000000000000000081526004016102d390612742565b60405180910390fd5b60003490506000600c54600b54836102f49190612791565b6102fe9190612802565b90506000818361030e9190612833565b905081600760008282546103229190612867565b92505081905550600060055411801561033d57506000600454115b61037c576040517f08c379a00000000000000000000000000000000000000000000000000000000081526004016103739061290d565b60405180910390fd5b60006005548261038c9190612867565b6004548361039a9190612791565b6103a49190612802565b90506000600454600e54670de0b6b3a76400006005546103c49190612802565b6103ce9190612791565b6103d89190612802565b90508581111561041d576040517f08c379a000000000000000000000000000000000000000000000000000000000815260040161041490612979565b60405180910390fd5b61045c6040518060400160405280601681526020017f43757272656e742045786368616e676520526174653a0000000000000000000081525082612049565b61049b6040518060400160405280601281526020017f4d61782045786368616e676520526174653a000000000000000000000000000081525087612049565b8160045410156104e0576040517f08c379a00000000000000000000000000000000000000000000000000000000081526004016104d7906129e5565b60405180910390fd5b6105216040518060400160405280600d81526020017f6574685f72657365727665733a00000000000000000000000000000000000000815250600554612049565b6105626040518060400160405280600f81526020017f746f6b656e5f72657365727665733a0000000000000000000000000000000000815250600454612049565b82600560008282546105749190612867565b92505081905550816004600082825461058d9190612833565b925050819055506105d56040518060400160405280600d81526020017f6574685f72657365727665733a00000000000000000000000000000000000000815250600554612049565b6106166040518060400160405280600f81526020017f746f6b656e5f72657365727665733a0000000000000000000000000000000000815250600454612049565b600360009054906101000a900473ffffffffffffffffffffffffffffffffffffffff1673ffffffffffffffffffffffffffffffffffffffff1663a9059cbb33846040518363ffffffff1660e01b8152600401610673929190612a05565b6020604051808303816000875af1158015610692573d6000803e3d6000fd5b505050506040513d601f19601f820116820180604052508101906106b69190612a66565b50505050505050565b6000600860003373ffffffffffffffffffffffffffffffffffffffff1673ffffffffffffffffffffffffffffffffffffffff16815260200190815260200160002054905060008111610746576040517f08c379a000000000000000000000000000000000000000000000000000000000815260040161073d90612adf565b60405180910390fd5b6000600a54600554836107599190612791565b6107639190612802565b90506000600a54600454846107789190612791565b6107829190612802565b905081600554116107c8576040517f08c379a00000000000000000000000000000000000000000000000000000000081526004016107bf90612b4b565b60405180910390fd5b806004541161080c576040517f08c379a000000000000000000000000000000000000000000000000000000000815260040161080390612bb7565b60405180910390fd5b6000600454600e54670de0b6b3a764000060055461082a9190612802565b6108349190612791565b61083e9190612802565b905085811115610883576040517f08c379a000000000000000000000000000000000000000000000000000000000815260040161087a90612979565b60405180910390fd5b848110156108c6576040517f08c379a00000000000000000000000000000000000000000000000000000000081526004016108bd90612c23565b60405180910390fd5b6000600a54600754866108d99190612791565b6108e39190612802565b90506000600a54600654876108f89190612791565b6109029190612802565b90506000600860003373ffffffffffffffffffffffffffffffffffffffff1673ffffffffffffffffffffffffffffffffffffffff1681526020019081526020016000208190555085600a600082825461095b9190612833565b9250508190555081600760008282546109749190612833565b92505081905550806006600082825461098d9190612833565b9250508190555060005b600980549050811015610a36573373ffffffffffffffffffffffffffffffffffffffff16600982815481106109cf576109ce612c43565b5b9060005260206000200160009054906101000a900473ffffffffffffffffffffffffffffffffffffffff1673ffffffffffffffffffffffffffffffffffffffff1603610a2357610a1e816120e5565b610a36565b8080610a2e90612c72565b915050610997565b508460056000828254610a499190612833565b925050819055508360046000828254610a629190612833565b925050819055503373ffffffffffffffffffffffffffffffffffffffff166108fc8387610a8f9190612867565b9081150290604051600060405180830381858888f19350505050158015610aba573d6000803e3d6000fd5b50600360009054906101000a900473ffffffffffffffffffffffffffffffffffffffff1673ffffffffffffffffffffffffffffffffffffffff1663a9059cbb338387610b069190612867565b6040518363ffffffff1660e01b8152600401610b23929190612a05565b6020604051808303816000875af1158015610b42573d6000803e3d6000fd5b505050506040513d601f19601f82011682018060405250810190610b669190612a66565b505050505050505050565b610b79612222565b610b8360006122a0565b565b610b8d612222565b600060045414610bd2576040517f08c379a0000000000000000000000000000000000000000000000000000000008152600401610bc990612d06565b60405180910390fd5b600060055414610c17576040517f08c379a0000000000000000000000000000000000000000000000000000000008152600401610c0e90612d72565b60405180910390fd5b60003411610c5a576040517f08c379a0000000000000000000000000000000000000000000000000000000008152600401610c5190612dde565b60405180910390fd5b6000600360009054906101000a900473ffffffffffffffffffffffffffffffffffffffff1673ffffffffffffffffffffffffffffffffffffffff166370a08231336040518263ffffffff1660e01b8152600401610cb79190612530565b602060405180830381865afa158015610cd4573d6000803e3d6000fd5b505050506040513d601f19601f82011682018060405250810190610cf89190612e13565b905080821115610d3d576040517f08c379a0000000000000000000000000000000000000000000000000000000008152600401610d3490612eb2565b60405180910390fd5b60008211610d80576040517f08c379a0000000000000000000000000000000000000000000000000000000008152600401610d7790612f1e565b60405180910390fd5b600360009054906101000a900473ffffffffffffffffffffffffffffffffffffffff1673ffffffffffffffffffffffffffffffffffffffff166323b872dd3330856040518463ffffffff1660e01b8152600401610ddf93929190612f3e565b6020604051808303816000875af1158015610dfe573d6000803e3d6000fd5b505050506040513d601f19601f82011682018060405250810190610e229190612a66565b50600360009054906101000a900473ffffffffffffffffffffffffffffffffffffffff1673ffffffffffffffffffffffffffffffffffffffff166370a08231306040518263ffffffff1660e01b8152600401610e7e9190612530565b602060405180830381865afa158015610e9b573d6000803e3d6000fd5b505050506040513d601f19601f82011682018060405250810190610ebf9190612e13565b60048190555034600581905550600554600454610edc9190612791565b600d81905550620186a0600a819055506064600860003373ffffffffffffffffffffffffffffffffffffffff1673ffffffffffffffffffffffffffffffffffffffff168152602001908152602001600020819055505050565b6000600860003373ffffffffffffffffffffffffffffffffffffffff1673ffffffffffffffffffffffffffffffffffffffff16815260200190815260200160002054905060008111610fbc576040517f08c379a0000000000000000000000000000000000000000000000000000000008152600401610fb390612adf565b60405180910390fd5b6000600a5460055483610fcf9190612791565b610fd99190612802565b90508085111561101e576040517f08c379a000000000000000000000000000000000000000000000000000000000815260040161101590612fe7565b60405180910390fd5b6000600554600a54876110319190612791565b61103b9190612802565b905060008111611080576040517f08c379a000000000000000000000000000000000000000000000000000000000815260040161107790613053565b60405180910390fd5b6000600a54600454836110939190612791565b61109d9190612802565b90506000876005546110af9190612833565b116110ef576040517f08c379a00000000000000000000000000000000000000000000000000000000081526004016110e6906130bf565b60405180910390fd5b6000816004546110ff9190612833565b1161113f576040517f08c379a00000000000000000000000000000000000000000000000000000000081526004016111369061312b565b60405180910390fd5b6000600454600e54670de0b6b3a764000060055461115d9190612802565b6111679190612791565b6111719190612802565b9050868111156111b6576040517f08c379a00000000000000000000000000000000000000000000000000000000081526004016111ad90613197565b60405180910390fd5b858110156111f9576040517f08c379a00000000000000000000000000000000000000000000000000000000081526004016111f090613203565b60405180910390fd5b6000600a546007548561120c9190612791565b6112169190612802565b90506000600a546006548661122b9190612791565b6112359190612802565b905084600860003373ffffffffffffffffffffffffffffffffffffffff1673ffffffffffffffffffffffffffffffffffffffff16815260200190815260200160002060008282546112869190612833565b9250508190555084600a600082825461129f9190612833565b9250508190555081600760008282546112b89190612833565b9250508190555080600660008282546112d19190612833565b925050819055506000600860003373ffffffffffffffffffffffffffffffffffffffff1673ffffffffffffffffffffffffffffffffffffffff16815260200190815260200160002054036113c35760005b6009805490508110156113c1573373ffffffffffffffffffffffffffffffffffffffff166009828154811061135a57611359612c43565b5b9060005260206000200160009054906101000a900473ffffffffffffffffffffffffffffffffffffffff1673ffffffffffffffffffffffffffffffffffffffff16036113ae576113a9816120e5565b6113c1565b80806113b990612c72565b915050611322565b505b89600560008282546113d59190612833565b9250508190555083600460008282546113ee9190612833565b925050819055503373ffffffffffffffffffffffffffffffffffffffff166108fc838c61141b9190612867565b9081150290604051600060405180830381858888f19350505050158015611446573d6000803e3d6000fd5b50600360009054906101000a900473ffffffffffffffffffffffffffffffffffffffff1673ffffffffffffffffffffffffffffffffffffffff1663a9059cbb3383876114929190612867565b6040518363ffffffff1660e01b81526004016114af929190612a05565b6020604051808303816000875af11580156114ce573d6000803e3d6000fd5b505050506040513d601f19601f820116820180604052508101906114f29190612a66565b5050505050505050505050565b60008060009054906101000a900473ffffffffffffffffffffffffffffffffffffffff16905090565b600034905060008111611570576040517f08c379a000000000000000000000000000000000000000000000000000000000815260040161156790612742565b60405180910390fd5b600060055411801561158457506000600454115b6115c3576040517f08c379a00000000000000000000000000000000000000000000000000000000081526004016115ba9061290d565b60405180910390fd5b6000600554600454836115d69190612791565b6115e09190612802565b905080600360009054906101000a900473ffffffffffffffffffffffffffffffffffffffff1673ffffffffffffffffffffffffffffffffffffffff166370a08231336040518263ffffffff1660e01b815260040161163e9190612530565b602060405180830381865afa15801561165b573d6000803e3d6000fd5b505050506040513d601f19601f8201168201806040525081019061167f9190612e13565b10156116c0576040517f08c379a00000000000000000000000000000000000000000000000000000000081526004016116b79061326f565b60405180910390fd5b6000600454600e54670de0b6b3a76400006005546116de9190612802565b6116e89190612791565b6116f29190612802565b90506117356040518060400160405280600d81526020017f6574685f72657365727665733a00000000000000000000000000000000000000815250600554612049565b6117766040518060400160405280600f81526020017f746f6b656e5f72657365727665733a0000000000000000000000000000000000815250600454612049565b6117b56040518060400160405280601681526020017f43757272656e742045786368616e676520526174653a0000000000000000000081525082612049565b848111156117f8576040517f08c379a00000000000000000000000000000000000000000000000000000000081526004016117ef90613197565b60405180910390fd5b8381101561183b576040517f08c379a000000000000000000000000000000000000000000000000000000000815260040161183290613203565b60405180910390fd5b6000600554600a548561184e9190612791565b6118589190612802565b90506000811161189d576040517f08c379a0000000000000000000000000000000000000000000000000000000008152600401611894906132db565b60405180910390fd5b6000600860003373ffffffffffffffffffffffffffffffffffffffff1673ffffffffffffffffffffffffffffffffffffffff1681526020019081526020016000205403611948576009339080600181540180825580915050600190039060005260206000200160009091909190916101000a81548173ffffffffffffffffffffffffffffffffffffffff021916908373ffffffffffffffffffffffffffffffffffffffff1602179055505b80600860003373ffffffffffffffffffffffffffffffffffffffff1673ffffffffffffffffffffffffffffffffffffffff16815260200190815260200160002060008282546119979190612867565b9250508190555080600a60008282546119b09190612867565b9250508190555083600560008282546119c99190612867565b9250508190555082600460008282546119e29190612867565b92505081905550600360009054906101000a900473ffffffffffffffffffffffffffffffffffffffff1673ffffffffffffffffffffffffffffffffffffffff166323b872dd3330866040518463ffffffff1660e01b8152600401611a4893929190612f3e565b6020604051808303816000875af1158015611a67573d6000803e3d6000fd5b505050506040513d601f19601f82011682018060405250810190611a8b9190612a66565b50505050505050565b60008211611ad7576040517f08c379a0000000000000000000000000000000000000000000000000000000008152600401611ace9061336d565b60405180910390fd5b81600360009054906101000a900473ffffffffffffffffffffffffffffffffffffffff1673ffffffffffffffffffffffffffffffffffffffff166370a08231336040518263ffffffff1660e01b8152600401611b339190612530565b602060405180830381865afa158015611b50573d6000803e3d6000fd5b505050506040513d601f19601f82011682018060405250810190611b749190612e13565b1015611bb5576040517f08c379a0000000000000000000000000000000000000000000000000000000008152600401611bac9061326f565b60405180910390fd5b600360009054906101000a900473ffffffffffffffffffffffffffffffffffffffff1673ffffffffffffffffffffffffffffffffffffffff166323b872dd3330856040518463ffffffff1660e01b8152600401611c1493929190612f3e565b6020604051808303816000875af1158015611c33573d6000803e3d6000fd5b505050506040513d601f19601f82011682018060405250810190611c579190612a66565b506000600c54600b5484611c6b9190612791565b611c759190612802565b905060008184611c859190612833565b90508160066000828254611c999190612867565b92505081905550600081600454611cb09190612867565b82600554611cbe9190612791565b611cc89190612802565b90506000600454600e54670de0b6b3a7640000600554611ce89190612802565b611cf29190612791565b611cfc9190612802565b9050611d3d6040518060400160405280601281526020017f4d61782045786368616e676520526174653a000000000000000000000000000081525086612049565b84811115611d80576040517f08c379a0000000000000000000000000000000000000000000000000000000008152600401611d7790612979565b60405180910390fd5b8160056000828254611d929190612833565b925050819055508260046000828254611dab9190612867565b92505081905550611df36040518060400160405280600d81526020017f6574685f72657365727665733a00000000000000000000000000000000000000815250600554612049565b611e326040518060400160405280600a81526020017f616d6f756e744554483a0000000000000000000000000000000000000000000081525083612049565b611e716040518060400160405280600d81526020017f6665655f72657365727665733a0000000000000000000000000000000000000081525084612049565b611eb26040518060400160405280600f81526020017f746f6b656e5f72657365727665733a0000000000000000000000000000000000815250600454612049565b3373ffffffffffffffffffffffffffffffffffffffff166108fc839081150290604051600060405180830381858888f19350505050158015611ef8573d6000803e3d6000fd5b50505050505050565b600080600b54600c54915091509091565b611f1a612222565b600073ffffffffffffffffffffffffffffffffffffffff168173ffffffffffffffffffffffffffffffffffffffff1603611f89576040517f08c379a0000000000000000000000000000000000000000000000000000000008152600401611f80906133ff565b60405180910390fd5b611f92816122a0565b50565b60018054611fa29061344e565b80601f0160208091040260200160405190810160405280929190818152602001828054611fce9061344e565b801561201b5780601f10611ff05761010080835404028352916020019161201b565b820191906000526020600020905b815481529060010190602001808311611ffe57829003601f168201915b505050505081565b600360009054906101000a900473ffffffffffffffffffffffffffffffffffffffff1681565b6120e1828260405160240161205f92919061347f565b6040516020818303038152906040527fb60e72cc000000000000000000000000000000000000000000000000000000007bffffffffffffffffffffffffffffffffffffffffffffffffffffffff19166020820180517bffffffffffffffffffffffffffffffffffffffffffffffffffffffff8381831617835250505050612364565b5050565b600980549050811061212c576040517f08c379a000000000000000000000000000000000000000000000000000000000815260040161212390613521565b60405180910390fd5b600960016009805490506121409190612833565b8154811061215157612150612c43565b5b9060005260206000200160009054906101000a900473ffffffffffffffffffffffffffffffffffffffff16600982815481106121905761218f612c43565b5b9060005260206000200160006101000a81548173ffffffffffffffffffffffffffffffffffffffff021916908373ffffffffffffffffffffffffffffffffffffffff16021790555060098054806121ea576121e9613541565b5b6001900381819060005260206000200160006101000a81549073ffffffffffffffffffffffffffffffffffffffff0219169055905550565b61222a61237e565b73ffffffffffffffffffffffffffffffffffffffff166122486114ff565b73ffffffffffffffffffffffffffffffffffffffff161461229e576040517f08c379a0000000000000000000000000000000000000000000000000000000008152600401612295906135bc565b60405180910390fd5b565b60008060009054906101000a900473ffffffffffffffffffffffffffffffffffffffff169050816000806101000a81548173ffffffffffffffffffffffffffffffffffffffff021916908373ffffffffffffffffffffffffffffffffffffffff1602179055508173ffffffffffffffffffffffffffffffffffffffff168173ffffffffffffffffffffffffffffffffffffffff167f8be0079c531659141344cd1fd0a4f28419497f9722a3daafe3b4186f6b6457e060405160405180910390a35050565b61237b816123736123866123a7565b63ffffffff16565b50565b600033905090565b60006a636f6e736f6c652e6c6f679050600080835160208501845afa505050565b6123b2819050919050565b6123ba6135dc565b565b6000819050919050565b6123cf816123bc565b82525050565b60006040820190506123ea60008301856123c6565b6123f760208301846123c6565b9392505050565b600080fd5b61240c816123bc565b811461241757600080fd5b50565b60008135905061242981612403565b92915050565b600060208284031215612445576124446123fe565b5b60006124538482850161241a565b91505092915050565b60008060408385031215612473576124726123fe565b5b60006124818582860161241a565b92505060206124928582860161241a565b9150509250929050565b6000806000606084860312156124b5576124b46123fe565b5b60006124c38682870161241a565b93505060206124d48682870161241a565b92505060406124e58682870161241a565b9150509250925092565b600073ffffffffffffffffffffffffffffffffffffffff82169050919050565b600061251a826124ef565b9050919050565b61252a8161250f565b82525050565b60006020820190506125456000830184612521565b92915050565b6125548161250f565b811461255f57600080fd5b50565b6000813590506125718161254b565b92915050565b60006020828403121561258d5761258c6123fe565b5b600061259b84828501612562565b91505092915050565b600081519050919050565b600082825260208201905092915050565b60005b838110156125de5780820151818401526020810190506125c3565b60008484015250505050565b6000601f19601f8301169050919050565b6000612606826125a4565b61261081856125af565b93506126208185602086016125c0565b612629816125ea565b840191505092915050565b6000602082019050818103600083015261264e81846125fb565b905092915050565b6000819050919050565b600061267b612676612671846124ef565b612656565b6124ef565b9050919050565b600061268d82612660565b9050919050565b600061269f82612682565b9050919050565b6126af81612694565b82525050565b60006020820190506126ca60008301846126a6565b92915050565b7f45544820616d6f756e74206d7573742062652067726561746572207468616e2060008201527f3000000000000000000000000000000000000000000000000000000000000000602082015250565b600061272c6021836125af565b9150612737826126d0565b604082019050919050565b6000602082019050818103600083015261275b8161271f565b9050919050565b7f4e487b7100000000000000000000000000000000000000000000000000000000600052601160045260246000fd5b600061279c826123bc565b91506127a7836123bc565b92508282026127b5816123bc565b915082820484148315176127cc576127cb612762565b5b5092915050565b7f4e487b7100000000000000000000000000000000000000000000000000000000600052601260045260246000fd5b600061280d826123bc565b9150612818836123bc565b925082612828576128276127d3565b5b828204905092915050565b600061283e826123bc565b9150612849836123bc565b925082820390508181111561286157612860612762565b5b92915050565b6000612872826123bc565b915061287d836123bc565b925082820190508082111561289557612894612762565b5b92915050565b7f496e73756666696369656e74206c697175696469747920696e2074686520706f60008201527f6f6c000000000000000000000000000000000000000000000000000000000000602082015250565b60006128f76022836125af565b91506129028261289b565b604082019050919050565b60006020820190508181036000830152612926816128ea565b9050919050565b7f536c6970706167653a2045786368616e6765207261746520746f6f2068696768600082015250565b60006129636020836125af565b915061296e8261292d565b602082019050919050565b6000602082019050818103600083015261299281612956565b9050919050565b7f496e73756666696369656e7420746f6b656e2072657365727665730000000000600082015250565b60006129cf601b836125af565b91506129da82612999565b602082019050919050565b600060208201905081810360008301526129fe816129c2565b9050919050565b6000604082019050612a1a6000830185612521565b612a2760208301846123c6565b9392505050565b60008115159050919050565b612a4381612a2e565b8114612a4e57600080fd5b50565b600081519050612a6081612a3a565b92915050565b600060208284031215612a7c57612a7b6123fe565b5b6000612a8a84828501612a51565b91505092915050565b7f4e6f742061206c69717569646974792070726f76696465720000000000000000600082015250565b6000612ac96018836125af565b9150612ad482612a93565b602082019050919050565b60006020820190508181036000830152612af881612abc565b9050919050565b7f496e73756666696369656e742045544820726573657276657300000000000000600082015250565b6000612b356019836125af565b9150612b4082612aff565b602082019050919050565b60006020820190508181036000830152612b6481612b28565b9050919050565b7f496e73756666696369656e7420546f6b656e7320726573657276657300000000600082015250565b6000612ba1601c836125af565b9150612bac82612b6b565b602082019050919050565b60006020820190508181036000830152612bd081612b94565b9050919050565b7f536c6970706167653a2045786368616e6765207261746520746f6f206c6f7700600082015250565b6000612c0d601f836125af565b9150612c1882612bd7565b602082019050919050565b60006020820190508181036000830152612c3c81612c00565b9050919050565b7f4e487b7100000000000000000000000000000000000000000000000000000000600052603260045260246000fd5b6000612c7d826123bc565b91507fffffffffffffffffffffffffffffffffffffffffffffffffffffffffffffffff8203612caf57612cae612762565b5b600182019050919050565b7f546f6b656e20726573657276657320776173206e6f7420300000000000000000600082015250565b6000612cf06018836125af565b9150612cfb82612cba565b602082019050919050565b60006020820190508181036000830152612d1f81612ce3565b9050919050565b7f45544820726573657276657320776173206e6f7420302e000000000000000000600082015250565b6000612d5c6017836125af565b9150612d6782612d26565b602082019050919050565b60006020820190508181036000830152612d8b81612d4f565b9050919050565b7f4e6565642065746820746f2063726561746520706f6f6c2e0000000000000000600082015250565b6000612dc86018836125af565b9150612dd382612d92565b602082019050919050565b60006020820190508181036000830152612df781612dbb565b9050919050565b600081519050612e0d81612403565b92915050565b600060208284031215612e2957612e286123fe565b5b6000612e3784828501612dfe565b91505092915050565b7f4e6f74206861766520656e6f75676820746f6b656e7320746f2063726561746560008201527f2074686520706f6f6c0000000000000000000000000000000000000000000000602082015250565b6000612e9c6029836125af565b9150612ea782612e40565b604082019050919050565b60006020820190508181036000830152612ecb81612e8f565b9050919050565b7f4e65656420746f6b656e7320746f2063726561746520706f6f6c2e0000000000600082015250565b6000612f08601b836125af565b9150612f1382612ed2565b602082019050919050565b60006020820190508181036000830152612f3781612efb565b9050919050565b6000606082019050612f536000830186612521565b612f606020830185612521565b612f6d60408301846123c6565b949350505050565b7f547279696e6720746f207769746864726177206d6f7265207468616e206f776e60008201527f6564000000000000000000000000000000000000000000000000000000000000602082015250565b6000612fd16022836125af565b9150612fdc82612f75565b604082019050919050565b6000602082019050818103600083015261300081612fc4565b9050919050565b7f4e6f7420656e6f75676820736861726573000000000000000000000000000000600082015250565b600061303d6011836125af565b915061304882613007565b602082019050919050565b6000602082019050818103600083015261306c81613030565b9050919050565b7f43616e6e6f7420656d7074792045544820726573657276657300000000000000600082015250565b60006130a96019836125af565b91506130b482613073565b602082019050919050565b600060208201905081810360008301526130d88161309c565b9050919050565b7f43616e6e6f7420656d70747920746f6b656e2072657365727665730000000000600082015250565b6000613115601b836125af565b9150613120826130df565b602082019050919050565b6000602082019050818103600083015261314481613108565b9050919050565b7f536c69707061676520746f6f2068696768000000000000000000000000000000600082015250565b60006131816011836125af565b915061318c8261314b565b602082019050919050565b600060208201905081810360008301526131b081613174565b9050919050565b7f536c69707061676520746f6f206c6f7700000000000000000000000000000000600082015250565b60006131ed6010836125af565b91506131f8826131b7565b602082019050919050565b6000602082019050818103600083015261321c816131e0565b9050919050565b7f496e73756666696369656e7420746f6b656e2062616c616e6365000000000000600082015250565b6000613259601a836125af565b915061326482613223565b602082019050919050565b600060208201905081810360008301526132888161324c565b9050919050565b7f5a65726f204c5020736861726573000000000000000000000000000000000000600082015250565b60006132c5600e836125af565b91506132d08261328f565b602082019050919050565b600060208201905081810360008301526132f4816132b8565b9050919050565b7f616d6f756e74546f6b656e73206d75737420626520677265617465722074686160008201527f6e20300000000000000000000000000000000000000000000000000000000000602082015250565b60006133576023836125af565b9150613362826132fb565b604082019050919050565b600060208201905081810360008301526133868161334a565b9050919050565b7f4f776e61626c653a206e6577206f776e657220697320746865207a65726f206160008201527f6464726573730000000000000000000000000000000000000000000000000000602082015250565b60006133e96026836125af565b91506133f48261338d565b604082019050919050565b60006020820190508181036000830152613418816133dc565b9050919050565b7f4e487b7100000000000000000000000000000000000000000000000000000000600052602260045260246000fd5b6000600282049050600182168061346657607f821691505b6020821081036134795761347861341f565b5b50919050565b6000604082019050818103600083015261349981856125fb565b90506134a860208301846123c6565b9392505050565b7f73706563696669656420696e646578206973206c6172676572207468616e207460008201527f6865206e756d626572206f66206c707300000000000000000000000000000000602082015250565b600061350b6030836125af565b9150613516826134af565b604082019050919050565b6000602082019050818103600083015261353a816134fe565b9050919050565b7f4e487b7100000000000000000000000000000000000000000000000000000000600052603160045260246000fd5b7f4f776e61626c653a2063616c6c6572206973206e6f7420746865206f776e6572600082015250565b60006135a66020836125af565b91506135b182613570565b602082019050919050565b600060208201905081810360008301526135d581613599565b9050919050565b7f4e487b7100000000000000000000000000000000000000000000000000000000600052605160045260246000fdfea2646970667358221220e777e72eb0b8b94ba579b4745701203054c75863a817580a43e678c0a925332364736f6c63430008110033",
  "linkReferences": {},
  "deployedLinkReferences": {}
}